10000822828022012080001VORWERK MEXICO S DE RL DE CV        TEST                15D01
210010000000012694809170100000000001976034976000994
300010100100000000000406555703000052567801091201930201208         MARIA ISABEL,MENENDEZ/LOPEZ                            PAGO COMPENSACION PRE003310        PAGO COMPENSACION PRE003310        PAGO COMPENSACION PRE003310        PAGO COMPENSACION PRE003310        000000              00000000                                                                                                                                  
300010100100000000000021787203000052567821958009930201208         MARIA BERTHA,ROSAS/CHAMA                               PAGO COMPENSACION PRE003311        PAGO COMPENSACION PRE003311        PAGO COMPENSACION PRE003311        PAGO COMPENSACION PRE003311        000000              00000000                                                                                                                                  
300010100100000000000815789901000000000700649299230201208         HAYDEE,VICENTE/PEROTTI                                 PAGO COMPENSACION PRE003312        PAGO COMPENSACION PRE003312        PAGO COMPENSACION PRE003312        PAGO COMPENSACION PRE003312        000000              00000000                                                                                                                                  
30002010010000000000028202254000000180415300956980201208         IVONNE,COVARRUBIAS/MENDEZ                              PAGO COMPENSACION PRE003313        PAGO COMPENSACION PRE003313        PAGO COMPENSACION PRE003313        PAGO COMPENSACION PRE003313        000000              00000000                                                                                                                                  
300020100100000000000156845840000721800042958222220201208         MARISELA IRMA,ANAYA/JUAREZ                             PAGO COMPENSACION PRE003314        PAGO COMPENSACION PRE003314        PAGO COMPENSACION PRE003314        PAGO COMPENSACION PRE003314        007200              00000000                                                                                                                                  
300010100100000000000090877115000000000000000322170201208         ANA GEORGINA,MONTERO/PEREZ                             PAGO COMPENSACION PRE003315        PAGO COMPENSACION PRE003315        PAGO COMPENSACION PRE003315        PAGO COMPENSACION PRE003315        000000              00000000                                                                                                                                  
300020100100000000000109661840000721800062874218200201208         MARIA DEL CARMEN,AGUILAR/ACOSTA                        PAGO COMPENSACION PRE003316        PAGO COMPENSACION PRE003316        PAGO COMPENSACION PRE003316        PAGO COMPENSACION PRE003316        007200              00000000                                                                                                                                  
300020100100000000000433155740000721800019298846360201208         JESSIKA,LABASTIDA/LOPEZ                                PAGO COMPENSACION PRE003317        PAGO COMPENSACION PRE003317        PAGO COMPENSACION PRE003317        PAGO COMPENSACION PRE003317        007200              00000000                                                                                                                                  
30002010010000000000025907854000000180902060855670201208         NELLY DEL CARMEN,PE A/DE LA CRUZ                       PAGO COMPENSACION PRE003318        PAGO COMPENSACION PRE003318        PAGO COMPENSACION PRE003318        PAGO COMPENSACION PRE003318        000000              00000000                                                                                                                                  
300010100100000000000021787201000000000700337041410201208         MARITZA GUADALUPE,MORELOS/LARA                         PAGO COMPENSACION PRE003319        PAGO COMPENSACION PRE003319        PAGO COMPENSACION PRE003319        PAGO COMPENSACION PRE003319        000000              00000000                                                                                                                                  
300010100100000000000282022503000052567832453151980201208         REBECA,TABACHNIK/ITZKOWICH                             PAGO COMPENSACION PRE003320        PAGO COMPENSACION PRE003320        PAGO COMPENSACION PRE003320        PAGO COMPENSACION PRE003320        000000              00000000                                                                                                                                  
300020100100000000000190661040000214200400186973410201208         REYNA,RODITI/HERRERA                                   PAGO COMPENSACION PRE003321        PAGO COMPENSACION PRE003321        PAGO COMPENSACION PRE003321        PAGO COMPENSACION PRE003321        002100              00000000                                                                                                                                  
300010100100000000000317305703000052041641428170940201208         VIVIANE MARIA LUISA,BROSSIER/DEMOLIN                   PAGO COMPENSACION PRE003322        PAGO COMPENSACION PRE003322        PAGO COMPENSACION PRE003322        PAGO COMPENSACION PRE003322        000000              00000000                                                                                                                                  
300020100100000000000123817040000361805004126151760201208         PALOMA ASCENCION,DIEZ/DEL OLMO                         PAGO COMPENSACION PRE003323        PAGO COMPENSACION PRE003323        PAGO COMPENSACION PRE003323        PAGO COMPENSACION PRE003323        003600              00000000                                                                                                                                  
300010100100000000000021787203000121800154859512080201208         SILVIA MARGARITA,RODRIGUEZ/SALDIVAR                    PAGO COMPENSACION PRE003324        PAGO COMPENSACION PRE003324        PAGO COMPENSACION PRE003324        PAGO COMPENSACION PRE003324        001200              00000000                                                                                                                                  
300020100100000000000224662540000000000000067999880201208         MARIA ALICIA,SANTANA/ALDAPE                            PAGO COMPENSACION PRE003325        PAGO COMPENSACION PRE003325        PAGO COMPENSACION PRE003325        PAGO COMPENSACION PRE003325        000000              00000000                                                                                                                                  
300010100100000000000295024101000000000700557004330201208         JOSEFINA,HERNANDEZ/ONTIVEROS                           PAGO COMPENSACION PRE003326        PAGO COMPENSACION PRE003326        PAGO COMPENSACION PRE003326        PAGO COMPENSACION PRE003326        000000              00000000                                                                                                                                  
300020100100000000000172573840000216500650536230600201208         GABRIELA,LARIOS/SANTOYO                                PAGO COMPENSACION PRE003327        PAGO COMPENSACION PRE003327        PAGO COMPENSACION PRE003327        PAGO COMPENSACION PRE003327        002100              00000000                                                                                                                                  
300010100100000000000247606503000052041654894663950201208         BERENICE,OLVERA/BONILLA                                PAGO COMPENSACION PRE003329        PAGO COMPENSACION PRE003329        PAGO COMPENSACION PRE003329        PAGO COMPENSACION PRE003329        000000              00000000                                                                                                                                  
300020100100000000000345305740000121800129399619090201208         ANA MARICEL,PADILLA/MATEUS                             PAGO COMPENSACION PRE003330        PAGO COMPENSACION PRE003330        PAGO COMPENSACION PRE003330        PAGO COMPENSACION PRE003330        001200              00000000                                                                                                                                  
300020100100000000000090877140000211800647010334600201208         ALICIA,VALENZUELA/COLIN                                PAGO COMPENSACION PRE003331        PAGO COMPENSACION PRE003331        PAGO COMPENSACION PRE003331        PAGO COMPENSACION PRE003331        002100              00000000                                                                                                                                  
300020100100000000000021787240000121800010136870260201208         ERIKA,TRILLO/ORTIZ                                     PAGO COMPENSACION PRE003332        PAGO COMPENSACION PRE003332        PAGO COMPENSACION PRE003332        PAGO COMPENSACION PRE003332        001200              00000000                                                                                                                                  
300010100100000000000021787201000000000902894925090201208         MARIA GUADALUPE,DE/LA PE A GARCIA                      PAGO COMPENSACION PRE003333        PAGO COMPENSACION PRE003333        PAGO COMPENSACION PRE003333        PAGO COMPENSACION PRE003333        000000              00000000                                                                                                                                  
300010100100000000000511555703000052567806161731980201208         COVADONGA,GOMEZ/MARTINEZ                               PAGO COMPENSACION PRE003334        PAGO COMPENSACION PRE003334        PAGO COMPENSACION PRE003334        PAGO COMPENSACION PRE003334        000000              00000000                                                                                                                                  
300020100100000000000156845840000141806050849001070201208         DUZ ELSA,RICARDI/DE LA CRUZ                            PAGO COMPENSACION PRE003335        PAGO COMPENSACION PRE003335        PAGO COMPENSACION PRE003335        PAGO COMPENSACION PRE003335        001400              00000000                                                                                                                                  
300010100100000000000259078501000000000700626875660201208         LETICIA,RODRIGUEZ/IBARRA                               PAGO COMPENSACION PRE003336        PAGO COMPENSACION PRE003336        PAGO COMPENSACION PRE003336        PAGO COMPENSACION PRE003336        000000              00000000                                                                                                                                  
300010100100000000000156845803000052567806161741960201208         DOLORES,PARTIDA/BUSH                                   PAGO COMPENSACION PRE003337        PAGO COMPENSACION PRE003337        PAGO COMPENSACION PRE003337        PAGO COMPENSACION PRE003337        000000              00000000                                                                                                                                  
300010100100000000000259078501000000000700319582270201208         MARIA GUADALUPE,FERNANDEZ/DEL VALLE GALLARDO           PAGO COMPENSACION PRE003338        PAGO COMPENSACION PRE003338        PAGO COMPENSACION PRE003338        PAGO COMPENSACION PRE003338        000000              00000000                                                                                                                                  
300020100100000000000090877140000121800287985808320201208         NANCY BETZABE,RIVERO/RIVERO                            PAGO COMPENSACION PRE003339        PAGO COMPENSACION PRE003339        PAGO COMPENSACION PRE003339        PAGO COMPENSACION PRE003339        001200              00000000                                                                                                                                  
300020100100000000000021787240000421800100009500860201208         ELENA,FARCA/ESQUENAZI                                  PAGO COMPENSACION PRE003340        PAGO COMPENSACION PRE003340        PAGO COMPENSACION PRE003340        PAGO COMPENSACION PRE003340        004200              00000000                                                                                                                                  
300020100100000000000056153840000369104012722849510201208         ANA MARIA,LOYOLA/ZERECERO                              PAGO COMPENSACION PRE003341        PAGO COMPENSACION PRE003341        PAGO COMPENSACION PRE003341        PAGO COMPENSACION PRE003341        003600              00000000                                                                                                                                  
300020100100000000000056153840000721800084270006300201208         ADRIANA ARZELIA,FARIAS/BAZ                             PAGO COMPENSACION PRE003342        PAGO COMPENSACION PRE003342        PAGO COMPENSACION PRE003342        PAGO COMPENSACION PRE003342        007200              00000000                                                                                                                                  
30002010010000000000022466254000000180901706155720201208         REBECA,ROQUE/DE GOMEZ                                  PAGO COMPENSACION PRE003343        PAGO COMPENSACION PRE003343        PAGO COMPENSACION PRE003343        PAGO COMPENSACION PRE003343        000000              00000000                                                                                                                                  
300020100100000000000021787240000144402000407744540201208         FERNANDA,DE/LA FUENTE COLMENARES                       PAGO COMPENSACION PRE003344        PAGO COMPENSACION PRE003344        PAGO COMPENSACION PRE003344        PAGO COMPENSACION PRE003344        001400              00000000                                                                                                                                  
300020100100000000000021787240000441800010115819560201208         MARTHA ELENA,HERRERA/ALCALA                            PAGO COMPENSACION PRE003345        PAGO COMPENSACION PRE003345        PAGO COMPENSACION PRE003345        PAGO COMPENSACION PRE003345        004400              00000000                                                                                                                                  
300020100100000000000274374540000445802560126096640201208         ADAN,CANALES/HINOJOSA                                  PAGO COMPENSACION PRE003346        PAGO COMPENSACION PRE003346        PAGO COMPENSACION PRE003346        PAGO COMPENSACION PRE003346        004400              00000000                                                                                                                                  
300020100100000000001007189940000121800125922129850201208         OLIVIA,ISUNZA/MARIN                                    PAGO COMPENSACION PRE003347        PAGO COMPENSACION PRE003347        PAGO COMPENSACION PRE003347        PAGO COMPENSACION PRE003347        001200              00000000                                                                                                                                  
300020100100000000000021787240000191800001130798680201208         CAROLINA MARIA,MONTERO/DEL COLLADO REYNOSO             PAGO COMPENSACION PRE003348        PAGO COMPENSACION PRE003348        PAGO COMPENSACION PRE003348        PAGO COMPENSACION PRE003348        001900              00000000                                                                                                                                  
300020100100000000000107299140000121800151879151860201208         REBECA,GONZALEZ/HERNANDEZ                              PAGO COMPENSACION PRE003349        PAGO COMPENSACION PRE003349        PAGO COMPENSACION PRE003349        PAGO COMPENSACION PRE003349        001200              00000000                                                                                                                                  
300010100100000000000021787203000021809021905074680201208         XIOMAR ODETTE,DUARTE/CEDILLO                           PAGO COMPENSACION PRE003351        PAGO COMPENSACION PRE003351        PAGO COMPENSACION PRE003351        PAGO COMPENSACION PRE003351        000000              00000000                                                                                                                                  
300020100100000000000021787240000141806054515940780201208         SILVIA,SAYAVEDRA/HERRERIAS                             PAGO COMPENSACION PRE003352        PAGO COMPENSACION PRE003352        PAGO COMPENSACION PRE003352        PAGO COMPENSACION PRE003352        001400              00000000                                                                                                                                  
300010100100000000000040507203000052567828407134920201208         PATRICIA,VALENTAN/ESQUEDA                              PAGO COMPENSACION PRE003353        PAGO COMPENSACION PRE003353        PAGO COMPENSACION PRE003353        PAGO COMPENSACION PRE003353        000000              00000000                                                                                                                                  
300020100100000000000405505740000441800010016739840201208         LAURA,ALONSO/PE AFIEL                                  PAGO COMPENSACION PRE003354        PAGO COMPENSACION PRE003354        PAGO COMPENSACION PRE003354        PAGO COMPENSACION PRE003354        004400              00000000                                                                                                                                  
300010100100000000000123817003000125400145755697720201208         PATRICIA ELIZABETH,BELTRAN/URQUIZA                     PAGO COMPENSACION PRE003355        PAGO COMPENSACION PRE003355        PAGO COMPENSACION PRE003355        PAGO COMPENSACION PRE003355        001200              00000000                                                                                                                                  
300020100100000000000612023140000211800405007962360201208         MARTHA PAULINA,NU EZ/ROSAS                             PAGO COMPENSACION PRE003356        PAGO COMPENSACION PRE003356        PAGO COMPENSACION PRE003356        PAGO COMPENSACION PRE003356        002100              00000000                                                                                                                                  
300020100100000000000123817040000141806058016187790201208         KARYNA,NU EZ/RIVAS                                     PAGO COMPENSACION PRE003357        PAGO COMPENSACION PRE003357        PAGO COMPENSACION PRE003357        PAGO COMPENSACION PRE003357        001400              00000000                                                                                                                                  
30002010010000000000002178724000000441701126293250201208         ELSA GRACIELA,ALVA/RODAS                               PAGO COMPENSACION PRE003358        PAGO COMPENSACION PRE003358        PAGO COMPENSACION PRE003358        PAGO COMPENSACION PRE003358        000000              00000000                                                                                                                                  
300010100100000000000090877101000000000059265688860201208         AIDA DEL SOCORRO,AGUILAR/MACALPIN                      PAGO COMPENSACION PRE003359        PAGO COMPENSACION PRE003359        PAGO COMPENSACION PRE003359        PAGO COMPENSACION PRE003359        000000              00000000                                                                                                                                  
30002010010000000000005615384000000180700367870210201208         CINTHIA BEGO A,HERNANDEZ/ROSAS                         PAGO COMPENSACION PRE003360        PAGO COMPENSACION PRE003360        PAGO COMPENSACION PRE003360        PAGO COMPENSACION PRE003360        000000              00000000                                                                                                                                  
300020100100000000000190661040000721800001408008720201208         MARICRUZ,ZAMARRIPA/MALDONADO                           PAGO COMPENSACION PRE003361        PAGO COMPENSACION PRE003361        PAGO COMPENSACION PRE003361        PAGO COMPENSACION PRE003361        007200              00000000                                                                                                                                  
300010100100000000000224662503000052567815603461940201208         MARIA OFELIA,RAMOS/GONZALEZ                            PAGO COMPENSACION PRE003362        PAGO COMPENSACION PRE003362        PAGO COMPENSACION PRE003362        PAGO COMPENSACION PRE003362        000000              00000000                                                                                                                                  
300020100100000000000289670540000142905600176144400201208         REGINA,ORTEGA/QUIROZ                                   PAGO COMPENSACION PRE003363        PAGO COMPENSACION PRE003363        PAGO COMPENSACION PRE003363        PAGO COMPENSACION PRE003363        001400              00000000                                                                                                                                  
30002010010000000000214057484000000180902431561990201208         MARIANA LETICIA,QUIROGA/BENAVIDES                      PAGO COMPENSACION PRE003364        PAGO COMPENSACION PRE003364        PAGO COMPENSACION PRE003364        PAGO COMPENSACION PRE003364        000000              00000000                                                                                                                                  
300010100100000000000392555701000000000054188604070201208         MARIA DEL CARMEN,ITURRALDE/CASTA EDA                   PAGO COMPENSACION PRE003365        PAGO COMPENSACION PRE003365        PAGO COMPENSACION PRE003365        PAGO COMPENSACION PRE003365        000000              00000000                                                                                                                                  
300010100100000000000056153803000052567823381402990201208         YOLANDA,SANDOVAL/REYES                                 PAGO COMPENSACION PRE003366        PAGO COMPENSACION PRE003366        PAGO COMPENSACION PRE003366        PAGO COMPENSACION PRE003366        000000              00000000                                                                                                                                  
30002010010000000000009087714000000320700858673320201208         DOLORES RAQUEL,LUQUIN/COMPARAN                         PAGO COMPENSACION PRE003367        PAGO COMPENSACION PRE003367        PAGO COMPENSACION PRE003367        PAGO COMPENSACION PRE003367        000000              00000000                                                                                                                                  
300020100100000000000123817040000121800151549779240201208         ANA MARIA,GUTIERREZ/VILLANUEVA                         PAGO COMPENSACION PRE003368        PAGO COMPENSACION PRE003368        PAGO COMPENSACION PRE003368        PAGO COMPENSACION PRE003368        001200              00000000                                                                                                                                  
300010100100000000001187039903000052567815603431910201208         VERONICA DEL ROBLE,GARZA/LAGUERA RANGEL                PAGO COMPENSACION PRE003369        PAGO COMPENSACION PRE003369        PAGO COMPENSACION PRE003369        PAGO COMPENSACION PRE003369        000000              00000000                                                                                                                                  
300010100100000000000329555703000052567816562533950201208         ALEJANDRA ARLET,CANDIANI/VELEZ                         PAGO COMPENSACION PRE003370        PAGO COMPENSACION PRE003370        PAGO COMPENSACION PRE003370        PAGO COMPENSACION PRE003370        000000              00000000                                                                                                                                  
300010100100000000000575643103000052567815603480910201208         VIVIANA,SEPULVEDA/AGUIRRE                              PAGO COMPENSACION PRE003371        PAGO COMPENSACION PRE003371        PAGO COMPENSACION PRE003371        PAGO COMPENSACION PRE003371        000000              00000000                                                                                                                                  
300010100100000000000056153803000052567815603490990201208         CAROLINA,GAYTAN/LEGORRETA                              PAGO COMPENSACION PRE003372        PAGO COMPENSACION PRE003372        PAGO COMPENSACION PRE003372        PAGO COMPENSACION PRE003372        000000              00000000                                                                                                                                  
300010100100000000000090877101000000000062400723680201208         MARIA LIGEIA DEL SOCORRO,CASAR/FERNANDEZ               PAGO COMPENSACION PRE003373        PAGO COMPENSACION PRE003373        PAGO COMPENSACION PRE003373        PAGO COMPENSACION PRE003373        000000              00000000                                                                                                                                  
30002010010000000000038555574000000180902518397850201208         ADRIANA,PEREZ/LORENZO                                  PAGO COMPENSACION PRE003374        PAGO COMPENSACION PRE003374        PAGO COMPENSACION PRE003374        PAGO COMPENSACION PRE003374        000000              00000000                                                                                                                                  
300020100100000000000090877140000121800010979598770201208         CECILIA MILAGROS,HERRERA/TORRES                        PAGO COMPENSACION PRE003375        PAGO COMPENSACION PRE003375        PAGO COMPENSACION PRE003375        PAGO COMPENSACION PRE003375        001200              00000000                                                                                                                                  
300010100100000000000056153803000052567816562588990201208         OFELIA,FIGUEROA/CASTA EDA                              PAGO COMPENSACION PRE003376        PAGO COMPENSACION PRE003376        PAGO COMPENSACION PRE003376        PAGO COMPENSACION PRE003376        000000              00000000                                                                                                                                  
300020100100000000000090877140000211800621664988170201208         NURIA ALEJANDRA,FRANCO/GRANADOS                        PAGO COMPENSACION PRE003377        PAGO COMPENSACION PRE003377        PAGO COMPENSACION PRE003377        PAGO COMPENSACION PRE003377        002100              00000000                                                                                                                                  
300020100100000000000021787240000146916058388231650201208         MARINA HELENA,GUI AN/GARCIA                            PAGO COMPENSACION PRE003378        PAGO COMPENSACION PRE003378        PAGO COMPENSACION PRE003378        PAGO COMPENSACION PRE003378        001400              00000000                                                                                                                                  
300020100100000000000650443140000211800608537634170201208         CLAUDIA,OBREGON/MURGA                                  PAGO COMPENSACION PRE003379        PAGO COMPENSACION PRE003379        PAGO COMPENSACION PRE003379        PAGO COMPENSACION PRE003379        002100              00000000                                                                                                                                  
30002010010000000000012381704000000290701672606060201208         MARIA ISELLA,GUTIERREZ/GONZALEZ                        PAGO COMPENSACION PRE003380        PAGO COMPENSACION PRE003380        PAGO COMPENSACION PRE003380        PAGO COMPENSACION PRE003380        000000              00000000                                                                                                                                  
300010100100000000000913799903000052041646897391980201208         LAURA IVETT,ZAPATA/LOPEZ                               PAGO COMPENSACION PRE003381        PAGO COMPENSACION PRE003381        PAGO COMPENSACION PRE003381        PAGO COMPENSACION PRE003381        000000              00000000                                                                                                                                  
300020100100000000000090877140000441800010735637180201208         MARIANA,MORALES/ALVAREZ                                PAGO COMPENSACION PRE003382        PAGO COMPENSACION PRE003382        PAGO COMPENSACION PRE003382        PAGO COMPENSACION PRE003382        004400              00000000                                                                                                                                  
300010100100000000000259078503000052041672869911950201208         MARISOL,GARCIA/TORRES AGUILAR ALVARES                  PAGO COMPENSACION PRE003383        PAGO COMPENSACION PRE003383        PAGO COMPENSACION PRE003383        PAGO COMPENSACION PRE003383        000000              00000000                                                                                                                                  
300020100100000000000090877140000121800152664840170201208         MIRIAM,TORRES/PADILLA                                  PAGO COMPENSACION PRE003384        PAGO COMPENSACION PRE003384        PAGO COMPENSACION PRE003384        PAGO COMPENSACION PRE003384        001200              00000000                                                                                                                                  
300020100100000000000021787240000141806055324856660201208         VLADIMIRA PATRICIA,ARRONIZ/BARRERA                     PAGO COMPENSACION PRE003385        PAGO COMPENSACION PRE003385        PAGO COMPENSACION PRE003385        PAGO COMPENSACION PRE003385        001400              00000000                                                                                                                                  
300020100100000000000021787240000121800045464729700201208         ELENA,QUINTANA/PI A                                    PAGO COMPENSACION PRE003386        PAGO COMPENSACION PRE003386        PAGO COMPENSACION PRE003386        PAGO COMPENSACION PRE003386        001200              00000000                                                                                                                                  
300020100100000000000475505740000726800001634773000201208         SIGRID,DONG/SAUL                                       PAGO COMPENSACION PRE003390        PAGO COMPENSACION PRE003390        PAGO COMPENSACION PRE003390        PAGO COMPENSACION PRE003390        007200              00000000                                                                                                                                  
30002010010000000000025907854000000320701641887260201208         MARTHA LETICIA,SANTIAGO/PEREZ                          PAGO COMPENSACION PRE003391        PAGO COMPENSACION PRE003391        PAGO COMPENSACION PRE003391        PAGO COMPENSACION PRE003391        000000              00000000                                                                                                                                  
300020100100000000000123817040000147006055101438210201208         PAULINA,VIVANCO/GOMEZ                                  PAGO COMPENSACION PRE003392        PAGO COMPENSACION PRE003392        PAGO COMPENSACION PRE003392        PAGO COMPENSACION PRE003392        001400              00000000                                                                                                                                  
300010100100000000000056153803000052567824113027900201208         LIGIA MARCELA,RAMOS/SOLIS                              PAGO COMPENSACION PRE003393        PAGO COMPENSACION PRE003393        PAGO COMPENSACION PRE003393        PAGO COMPENSACION PRE003393        000000              00000000                                                                                                                                  
300020100100000000000056153840000726500017132547400201208         LIZBETH ESTHER,TOVAR/SANCHEZ                           PAGO COMPENSACION PRE003394        PAGO COMPENSACION PRE003394        PAGO COMPENSACION PRE003394        PAGO COMPENSACION PRE003394        007200              00000000                                                                                                                                  
30002010010000000000009087714000000691902779996320201208         NORMA,GARCIA/ALVAREZ                                   PAGO COMPENSACION PRE003395        PAGO COMPENSACION PRE003395        PAGO COMPENSACION PRE003395        PAGO COMPENSACION PRE003395        000000              00000000                                                                                                                                  
300010100100000000000056153803000052567819076604970201208         GABRIELA ISABEL,FRAUSTRO/GONZALEZ                      PAGO COMPENSACION PRE003396        PAGO COMPENSACION PRE003396        PAGO COMPENSACION PRE003396        PAGO COMPENSACION PRE003396        000000              00000000                                                                                                                                  
300020100100000000001123349940000123200157848291180201208         BEATRIZ ADRIANA,JASSO/TOY                              PAGO COMPENSACION PRE003397        PAGO COMPENSACION PRE003397        PAGO COMPENSACION PRE003397        PAGO COMPENSACION PRE003397        001200              00000000                                                                                                                                  
300010100100000000000310305701000000000034976045580201208         ALMA ERIKA,DOMINGUEZ/VIRGEN                            PAGO COMPENSACION PRE003398        PAGO COMPENSACION PRE003398        PAGO COMPENSACION PRE003398        PAGO COMPENSACION PRE003398        000000              00000000                                                                                                                                  
30002010010000000000022466254000000580008721032870201208         MIRNA ZULEMA,RUBIO/ALVAREZ                             PAGO COMPENSACION PRE003399        PAGO COMPENSACION PRE003399        PAGO COMPENSACION PRE003399        PAGO COMPENSACION PRE003399        000000              00000000                                                                                                                                  
300010100100000000000295024103000052567819807350910201208         MARINA,GONZALEZ/LEON                                   PAGO COMPENSACION PRE003400        PAGO COMPENSACION PRE003400        PAGO COMPENSACION PRE003400        PAGO COMPENSACION PRE003400        000000              00000000                                                                                                                                  
300020100100000000000123817040000421800070022283760201208         ESTHER,COHEN/ROMANO                                    PAGO COMPENSACION PRE003401        PAGO COMPENSACION PRE003401        PAGO COMPENSACION PRE003401        PAGO COMPENSACION PRE003401        000000              00000000                                                                                                                                  
300010100100000000000564423103000052567881163249970201208         MARIA,INGRID/PEREZ DE LA GARZA                         PAGO COMPENSACION PRE003402        PAGO COMPENSACION PRE003402        PAGO COMPENSACION PRE003402        PAGO COMPENSACION PRE003402        000000              00000000                                                                                                                                  
300020100100000000000090877140000721800001490582560201208         LAURA,VAZQUEZ/CALDERON                                 PAGO COMPENSACION PRE003403        PAGO COMPENSACION PRE003403        PAGO COMPENSACION PRE003403        PAGO COMPENSACION PRE003403        007200              00000000                                                                                                                                  
300020100100000000000433155740000126800016605807880201208         KARLA,RODRIGUEZ/VAZQUEZ                                PAGO COMPENSACION PRE003404        PAGO COMPENSACION PRE003404        PAGO COMPENSACION PRE003404        PAGO COMPENSACION PRE003404        001200              00000000                                                                                                                                  
300020100100000000000123817040000216800640976834220201208         MERCEDES RUTH,DEOLARTE/MELGAREJO                       PAGO COMPENSACION PRE003405        PAGO COMPENSACION PRE003405        PAGO COMPENSACION PRE003405        PAGO COMPENSACION PRE003405        002100              00000000                                                                                                                                  
300020100100000000000596043140000729100047428824350201208         MARIA CECILIA,GALVAN/VERDUGO                           PAGO COMPENSACION PRE003408        PAGO COMPENSACION PRE003408        PAGO COMPENSACION PRE003408        PAGO COMPENSACION PRE003408        007200              00000000                                                                                                                                  
300010100100000000000123817001000000000700706719700201208         MARIA MAGDALENA,CORTES/CORTES                          PAGO COMPENSACION PRE003410        PAGO COMPENSACION PRE003410        PAGO COMPENSACION PRE003410        PAGO COMPENSACION PRE003410        000000              00000000                                                                                                                                  
300020100100000000000123817040000721800019687553440201208         ANDREA XOCHITL,MENDEZ/LUNA                             PAGO COMPENSACION PRE003411        PAGO COMPENSACION PRE003411        PAGO COMPENSACION PRE003411        PAGO COMPENSACION PRE003411        007200              00000000                                                                                                                                  
300020100100000000000163137040000121800018168607070201208         MARIA DE LOS DOLORES,MONTA O/REYES                     PAGO COMPENSACION PRE003412        PAGO COMPENSACION PRE003412        PAGO COMPENSACION PRE003412        PAGO COMPENSACION PRE003412        001200              00000000                                                                                                                                  
300010100100000000000090877103000052567820266545930201208         MARIA GEORGETTE,ROMERO/BARDAWIL                        PAGO COMPENSACION PRE003413        PAGO COMPENSACION PRE003413        PAGO COMPENSACION PRE003413        PAGO COMPENSACION PRE003413        000000              00000000                                                                                                                                  
300020100100000000000021787240000729100020520786850201208         JISELA,SOLIS/OLGUIN                                    PAGO COMPENSACION PRE003414        PAGO COMPENSACION PRE003414        PAGO COMPENSACION PRE003414        PAGO COMPENSACION PRE003414        007200              00000000                                                                                                                                  
300020100100000000000056153840000302909000105254840201208         ANA ELENA,TANCO/HIDALGO                                PAGO COMPENSACION PRE003415        PAGO COMPENSACION PRE003415        PAGO COMPENSACION PRE003415        PAGO COMPENSACION PRE003415        000000              00000000                                                                                                                                  
300020100100000000000056153840000121800015402864370201208         MARIA ALEJANDRA,OTEGUI/LARREGUI                        PAGO COMPENSACION PRE003416        PAGO COMPENSACION PRE003416        PAGO COMPENSACION PRE003416        PAGO COMPENSACION PRE003416        001200              00000000                                                                                                                                  
300020100100000000000224662540000121800014547349780201208         MARIA ALEJANDRA ANTONIETA,ESCALANTE/BOURILLON          PAGO COMPENSACION PRE003417        PAGO COMPENSACION PRE003417        PAGO COMPENSACION PRE003417        PAGO COMPENSACION PRE003417        001200              00000000                                                                                                                                  
300010100100000000001581719901000000000089100277360201208         LIGIA CAMELI,FERNANDEZ/SOL                             PAGO COMPENSACION PRE003418        PAGO COMPENSACION PRE003418        PAGO COMPENSACION PRE003418        PAGO COMPENSACION PRE003418        000000              00000000                                                                                                                                  
300020100100000000000056153840000121800113543236730201208         MARIA ALEJANDRA,GARCIA/GONZALEZ                        PAGO COMPENSACION PRE003419        PAGO COMPENSACION PRE003419        PAGO COMPENSACION PRE003419        PAGO COMPENSACION PRE003419        001200              00000000                                                                                                                                  
300020100100000000000123817040000441800010192906050201208         ROSA MARIA,GARCIA/CORONA                               PAGO COMPENSACION PRE003420        PAGO COMPENSACION PRE003420        PAGO COMPENSACION PRE003420        PAGO COMPENSACION PRE003420        004400              00000000                                                                                                                                  
300020100100000000000377505740000723200021072627900201208         MARIA JOSE,DE/LA GARZA OROZCO                          PAGO COMPENSACION PRE003421        PAGO COMPENSACION PRE003421        PAGO COMPENSACION PRE003421        PAGO COMPENSACION PRE003421        007200              00000000                                                                                                                                  
300020100100000000000198525040000721800103574221980201208         MONSERRATT,SOTO/CASTA ON                               PAGO COMPENSACION PRE003422        PAGO COMPENSACION PRE003422        PAGO COMPENSACION PRE003422        PAGO COMPENSACION PRE003422        007200              00000000                                                                                                                                  
300020100100000000000090877140000121800142278935380201208         LAILA MARTHA,BAEZ/DEL CASTILLO                         PAGO COMPENSACION PRE003423        PAGO COMPENSACION PRE003423        PAGO COMPENSACION PRE003423        PAGO COMPENSACION PRE003423        001200              00000000                                                                                                                                  
30001010010000000000012381700100000000000000000070070021807012770432370201208         MONICA,MEDINA/ARIAS                                    PAGO COMPENSACION PRE003424        PAGO COMPENSACION PRE003424        PAGO COMPENSACION PRE003424        PAGO COMPENSACION PRE003424        000000              00000000                                                                                                                                  
300020100100000000000433155740000585805395859001210201208         MARTHA LAURENCIA,GUZMAN/SANCHEZ                        PAGO COMPENSACION PRE003425        PAGO COMPENSACION PRE003425        PAGO COMPENSACION PRE003425        PAGO COMPENSACION PRE003425        005800              00000000                                                                                                                                  
300020100100000000000056153840000121800159874498490201208         VIRGINIA RAQUEL,GARCIA/MERCADO                         PAGO COMPENSACION PRE003426        PAGO COMPENSACION PRE003426        PAGO COMPENSACION PRE003426        PAGO COMPENSACION PRE003426        001200              00000000                                                                                                                                  
300020100100000000000506305740000213200405832893130201208         VERONICA LILLERMING,VELARDE/VARGAS                     PAGO COMPENSACION PRE003427        PAGO COMPENSACION PRE003427        PAGO COMPENSACION PRE003427        PAGO COMPENSACION PRE003427        002100              00000000                                                                                                                                  
30002010010000000000005615384000000580701189387960201208         LILI,SALAZAR/RUIZ                                      PAGO COMPENSACION PRE003428        PAGO COMPENSACION PRE003428        PAGO COMPENSACION PRE003428        PAGO COMPENSACION PRE003428        000000              00000000                                                                                                                                  
300020100100000000000056153840000121800143022688260201208         ELSA YAZMIN,LOPEZ/RIVAS                                PAGO COMPENSACION PRE003430        PAGO COMPENSACION PRE003430        PAGO COMPENSACION PRE003430        PAGO COMPENSACION PRE003430        001200              00000000                                                                                                                                  
300010100100000000000040507203000052567821463266920201208         IMELDA GUADALUPE,MONTOYA/LEAL                          PAGO COMPENSACION PRE003431        PAGO COMPENSACION PRE003431        PAGO COMPENSACION PRE003431        PAGO COMPENSACION PRE003431        000000              00000000                                                                                                                                  
300010100100000000000312405701000000000903407476060201208         CLAUDIA,ZENIL/DE LA ROSA                               PAGO COMPENSACION PRE003432        PAGO COMPENSACION PRE003432        PAGO COMPENSACION PRE003432        PAGO COMPENSACION PRE003432        000000              00000000                                                                                                                                  
300020100100000000000056153840000721800080277396860201208         JUDITH ARACELI,MU OZ/MORENO                            PAGO COMPENSACION PRE003433        PAGO COMPENSACION PRE003433        PAGO COMPENSACION PRE003433        PAGO COMPENSACION PRE003433        007200              00000000                                                                                                                                  
300010100100000000000067516601000000000903406831010201208         KARLA TERESA,BETANCOURT/CARRASCO                       PAGO COMPENSACION PRE003434        PAGO COMPENSACION PRE003434        PAGO COMPENSACION PRE003434        PAGO COMPENSACION PRE003434        000000              00000000                                                                                                                                  
300020100100000000000123817040000121800154314384870201208         MAGDALENA ISABEL,GUERRERO/VALDEZ                       PAGO COMPENSACION PRE003435        PAGO COMPENSACION PRE003435        PAGO COMPENSACION PRE003435        PAGO COMPENSACION PRE003435        001200              00000000                                                                                                                                  
300010100100000000000310305701000000000700526242720201208         MARIA FELIX,LUGO/BARREDA                               PAGO COMPENSACION PRE003436        PAGO COMPENSACION PRE003436        PAGO COMPENSACION PRE003436        PAGO COMPENSACION PRE003436        000000              00000000                                                                                                                                  
300020100100000000000259078540000121800019565919100201208         LAURA,RANGEL/SUTTI                                     PAGO COMPENSACION PRE003437        PAGO COMPENSACION PRE003437        PAGO COMPENSACION PRE003437        PAGO COMPENSACION PRE003437        001200              00000000                                                                                                                                  
300010100100000000000021787203000052567860555851980201208         MARIA ELENA,LEAL/GARCIA                                PAGO COMPENSACION PRE003438        PAGO COMPENSACION PRE003438        PAGO COMPENSACION PRE003438        PAGO COMPENSACION PRE003438        000000              00000000                                                                                                                                  
300020100100000000000259078540000148496053857322500201208         NORMA ARACELI,SANCHEZ/GARDU O                          PAGO COMPENSACION PRE003440        PAGO COMPENSACION PRE003440        PAGO COMPENSACION PRE003440        PAGO COMPENSACION PRE003440        001400              00000000                                                                                                                                  
30002010010000000000036350574000000180057379625490201208         ERICKA PIZARRO,SUAREZ/VERGARA LOPE                     PAGO COMPENSACION PRE003441        PAGO COMPENSACION PRE003441        PAGO COMPENSACION PRE003441        PAGO COMPENSACION PRE003441        000000              00000000                                                                                                                                  
300020100100000000000123817040000213200404732064350201208         LILIANA,VARGAS/COLMENERO                               PAGO COMPENSACION PRE003442        PAGO COMPENSACION PRE003442        PAGO COMPENSACION PRE003442        PAGO COMPENSACION PRE003442        002100              00000000                                                                                                                                  
300020100100000000000190661040000218820641173604810201208         ROCIO,DE/LA VEGA UBEDA                                 PAGO COMPENSACION PRE003443        PAGO COMPENSACION PRE003443        PAGO COMPENSACION PRE003443        PAGO COMPENSACION PRE003443        002100              00000000                                                                                                                                  
300010100100000000000021787203000024307014823303750201208         MAYRA,BAUTISTA/OJEDA                                   PAGO COMPENSACION PRE003444        PAGO COMPENSACION PRE003444        PAGO COMPENSACION PRE003444        PAGO COMPENSACION PRE003444        000000              00000000                                                                                                                                  
300010100100000000000090877103000052041673697801920201208         ARCELIA,AGUILAR/AVILA                                  PAGO COMPENSACION PRE003446        PAGO COMPENSACION PRE003446        PAGO COMPENSACION PRE003446        PAGO COMPENSACION PRE003446        000000              00000000                                                                                                                                  
300010100100000000000021787203000052041646028292900201208         EMILIA ILIANA,MALDONADO/PERRUSQUIA                     PAGO COMPENSACION PRE003447        PAGO COMPENSACION PRE003447        PAGO COMPENSACION PRE003447        PAGO COMPENSACION PRE003447        000000              00000000                                                                                                                                  
300020100100000000000056153840000729100084989727050201208         MARIA GRACIELA,MESTRE/NORIEGA                          PAGO COMPENSACION PRE003449        PAGO COMPENSACION PRE003449        PAGO COMPENSACION PRE003449        PAGO COMPENSACION PRE003449        007200              00000000                                                                                                                                  
300020100100000000000090877140000122250117398867840201208         MONICA LIZZETTE,GUERRA/FIGUEROA                        PAGO COMPENSACION PRE003450        PAGO COMPENSACION PRE003450        PAGO COMPENSACION PRE003450        PAGO COMPENSACION PRE003450        001200              00000000                                                                                                                                  
300010100100000000000412155703000052567830559029940201208         MARIA DEL CARMEN,GONZALEZ/PORTILLO                     PAGO COMPENSACION PRE003451        PAGO COMPENSACION PRE003451        PAGO COMPENSACION PRE003451        PAGO COMPENSACION PRE003451        000000              00000000                                                                                                                                  
300020100100000000000058604640000211800607606528310201208         REBECA,SILVA/SANCHEZ                                   PAGO COMPENSACION PRE003452        PAGO COMPENSACION PRE003452        PAGO COMPENSACION PRE003452        PAGO COMPENSACION PRE003452        002100              00000000                                                                                                                                  
300020100100000000000090877140000146506056336004690201208         ALEJANDRA,RIVERO/RUGERIO                               PAGO COMPENSACION PRE003453        PAGO COMPENSACION PRE003453        PAGO COMPENSACION PRE003453        PAGO COMPENSACION PRE003453        001400              00000000                                                                                                                                  
300020100100000000000090877140000210900641949689280201208         MARIA,CERVANTES/ESPINOSA                               PAGO COMPENSACION PRE003454        PAGO COMPENSACION PRE003454        PAGO COMPENSACION PRE003454        PAGO COMPENSACION PRE003454        002100              00000000                                                                                                                                  
300020100100000000000090877140000121800019685736120201208         MARIA XOCHITL,GUADARRAMA/FLORES                        PAGO COMPENSACION PRE003455        PAGO COMPENSACION PRE003455        PAGO COMPENSACION PRE003455        PAGO COMPENSACION PRE003455        001200              00000000                                                                                                                                  
300020100100000000000040507240000123200292784374710201208         MIRYAM,DE/LA MORA ROSADO                               PAGO COMPENSACION PRE003456        PAGO COMPENSACION PRE003456        PAGO COMPENSACION PRE003456        PAGO COMPENSACION PRE003456        001200              00000000                                                                                                                                  
300010100100000000000274374503000052567822636316920201208         FERNANDO,ZENIZO/ZAMORA                                 PAGO COMPENSACION PRE003457        PAGO COMPENSACION PRE003457        PAGO COMPENSACION PRE003457        PAGO COMPENSACION PRE003457        000000              00000000                                                                                                                                  
300020100100000000000073977840000307002038875020210201208         MA  TERESA,DE/LA TORRE VILLAREAL                       PAGO COMPENSACION PRE003458        PAGO COMPENSACION PRE003458        PAGO COMPENSACION PRE003458        PAGO COMPENSACION PRE003458        003000              00000000                                                                                                                                  
300020100100000000000021787240000121800152686503860201208         SANDRA LETICIA,VARGAS/AZCARRAGA                        PAGO COMPENSACION PRE003459        PAGO COMPENSACION PRE003459        PAGO COMPENSACION PRE003459        PAGO COMPENSACION PRE003459        001200              00000000                                                                                                                                  
300020100100000000000123817040000121800116456136810201208         ILEANA MARGARITA GERALDINA,CARRANCA/MOHENO             PAGO COMPENSACION PRE003460        PAGO COMPENSACION PRE003460        PAGO COMPENSACION PRE003460        PAGO COMPENSACION PRE003460        001200              00000000                                                                                                                                  
300020100100000000000190661040001271800131868026240201208         ADRIANA,CHACON/ROJO                                    PAGO COMPENSACION PRE003461        PAGO COMPENSACION PRE003461        PAGO COMPENSACION PRE003461        PAGO COMPENSACION PRE003461        012700              00000000                                                                                                                                  
300020100100000000000021787240000446800350484604480201208         ANA PATRICIA,FERNANDEZ/CASAS                           PAGO COMPENSACION PRE003462        PAGO COMPENSACION PRE003462        PAGO COMPENSACION PRE003462        PAGO COMPENSACION PRE003462        004400              00000000                                                                                                                                  
300020100100000000000056153840000211800403089135250201208         LAURA,DEL/PINO FLORES                                  PAGO COMPENSACION PRE003463        PAGO COMPENSACION PRE003463        PAGO COMPENSACION PRE003463        PAGO COMPENSACION PRE003463        002100              00000000                                                                                                                                  
30002010010000000000005615384000000320700744062520201208         GRETEL BEATRIZ,ARIAS/ORENDAIN                          PAGO COMPENSACION PRE003464        PAGO COMPENSACION PRE003464        PAGO COMPENSACION PRE003464        PAGO COMPENSACION PRE003464        000000              00000000                                                                                                                                  
300020100100000000000213955340000726910028933956390201208         VALERIA,VALDIVIA/WOLFF                                 PAGO COMPENSACION PRE003465        PAGO COMPENSACION PRE003465        PAGO COMPENSACION PRE003465        PAGO COMPENSACION PRE003465        007200              00000000                                                                                                                                  
300010100100000000000056153803000052567833531418990201208         VICTORIA,CALDERON/MERINO                               PAGO COMPENSACION PRE003466        PAGO COMPENSACION PRE003466        PAGO COMPENSACION PRE003466        PAGO COMPENSACION PRE003466        000000              00000000                                                                                                                                  
300020100100000000000090877140000213200405380770750201208         VERONICA,VALENCIA/MENDOZA                              PAGO COMPENSACION PRE003467        PAGO COMPENSACION PRE003467        PAGO COMPENSACION PRE003467        PAGO COMPENSACION PRE003467        002100              00000000                                                                                                                                  
300010100100000000000056153801000000000903951427110201208         MIRNA ANGHELINA,MOLINA/MEJIA                           PAGO COMPENSACION PRE003468        PAGO COMPENSACION PRE003468        PAGO COMPENSACION PRE003468        PAGO COMPENSACION PRE003468        000000              00000000                                                                                                                                  
300020100100000000000056153840000121800129196490920201208         ANA CLAUDIA,AROCHI/LOPEZ                               PAGO COMPENSACION PRE003469        PAGO COMPENSACION PRE003469        PAGO COMPENSACION PRE003469        PAGO COMPENSACION PRE003469        001200              00000000                                                                                                                                  
300020100100000000000056153840000721800063326354220201208         ALICIA,RUIZ/GOMEZ                                      PAGO COMPENSACION PRE003470        PAGO COMPENSACION PRE003470        PAGO COMPENSACION PRE003470        PAGO COMPENSACION PRE003470        007200              00000000                                                                                                                                  
300010100100000000000021787203000052041672045993930201208         CRISTINA,DAVILA/ARANDA                                 PAGO COMPENSACION PRE003471        PAGO COMPENSACION PRE003471        PAGO COMPENSACION PRE003471        PAGO COMPENSACION PRE003471        000000              00000000                                                                                                                                  
300020100100000000000282022540000121800046514111720201208         MARIA DEL PILAR,CAVAZOS/QUERO                          PAGO COMPENSACION PRE003472        PAGO COMPENSACION PRE003472        PAGO COMPENSACION PRE003472        PAGO COMPENSACION PRE003472        001200              00000000                                                                                                                                  
300020100100000000000082687140000123200151906928610201208         ESTRELLA AURORA,RUIZ/ZAMORA                            PAGO COMPENSACION PRE003473        PAGO COMPENSACION PRE003473        PAGO COMPENSACION PRE003473        PAGO COMPENSACION PRE003473        001200              00000000                                                                                                                                  
300020100100000000000090877140000721800001058585000201208         MONICA PATRICIA,LOPEZ/ESPINOSA DE LOS MONTEROS         PAGO COMPENSACION PRE003474        PAGO COMPENSACION PRE003474        PAGO COMPENSACION PRE003474        PAGO COMPENSACION PRE003474        007200              00000000                                                                                                                                  
300020100100000000000021787240000121800153136226090201208         MARICARMEN,TORRES/GARCIA                               PAGO COMPENSACION PRE003475        PAGO COMPENSACION PRE003475        PAGO COMPENSACION PRE003475        PAGO COMPENSACION PRE003475        001200              00000000                                                                                                                                  
300020100100000000000056153840000121800016526991160201208         ANA MARIA,ORVIZ/FERNANDEZ                              PAGO COMPENSACION PRE003476        PAGO COMPENSACION PRE003476        PAGO COMPENSACION PRE003476        PAGO COMPENSACION PRE003476        001200              00000000                                                                                                                                  
300020100100000000000396055740000141802000337046810201208         CECILIA,GOMEZ/GALLARDO MAASS                           PAGO COMPENSACION PRE003477        PAGO COMPENSACION PRE003477        PAGO COMPENSACION PRE003477        PAGO COMPENSACION PRE003477        001400              00000000                                                                                                                                  
300020100100000000000056153840000124350148541636160201208         BETTY ITALIA,GOMEZ/PEREZ                               PAGO COMPENSACION PRE003478        PAGO COMPENSACION PRE003478        PAGO COMPENSACION PRE003478        PAGO COMPENSACION PRE003478        001200              00000000                                                                                                                                  
300010100100000000000156845803000052567824605622940201208         ADRIANA MARIA,CORREAU/GALEAZZI                         PAGO COMPENSACION PRE003479        PAGO COMPENSACION PRE003479        PAGO COMPENSACION PRE003479        PAGO COMPENSACION PRE003479        000000              00000000                                                                                                                                  
300020100100000000000056153840000126500156897916550201208         DANIELLA,SPEZZIA/MEJIA                                 PAGO COMPENSACION PRE003480        PAGO COMPENSACION PRE003480        PAGO COMPENSACION PRE003480        PAGO COMPENSACION PRE003480        001200              00000000                                                                                                                                  
300020100100000000000090877140000366805001351435770201208         PAULINA,PI A/COTA                                      PAGO COMPENSACION PRE003481        PAGO COMPENSACION PRE003481        PAGO COMPENSACION PRE003481        PAGO COMPENSACION PRE003481        003600              00000000                                                                                                                                  
300020100100000000000156845840000141806051095870100201208         LAZLO JANOS,KISS/RAHME                                 PAGO COMPENSACION PRE003482        PAGO COMPENSACION PRE003482        PAGO COMPENSACION PRE003482        PAGO COMPENSACION PRE003482        001400              00000000                                                                                                                                  
300020100100000000000090877140000121800157929112450201208         AUDREY ODETTE,CIPRES/HERNANDEZ                         PAGO COMPENSACION PRE003483        PAGO COMPENSACION PRE003483        PAGO COMPENSACION PRE003483        PAGO COMPENSACION PRE003483        001200              00000000                                                                                                                                  
300020100100000000000021787240000725800023900937940201208         SANDRA,ORTIZ/MULLER                                    PAGO COMPENSACION PRE003484        PAGO COMPENSACION PRE003484        PAGO COMPENSACION PRE003484        PAGO COMPENSACION PRE003484        007200              00000000                                                                                                                                  
300020100100000000000247606540000721800110156786780201208         CLAUDIA ELENA,RIVERA/VAZQUEZ                           PAGO COMPENSACION PRE003485        PAGO COMPENSACION PRE003485        PAGO COMPENSACION PRE003485        PAGO COMPENSACION PRE003485        007200              00000000                                                                                                                                  
300020100100000000000123817040000721800069240430660201208         SILVIA,GOMEZ/YEO                                       PAGO COMPENSACION PRE003486        PAGO COMPENSACION PRE003486        PAGO COMPENSACION PRE003486        PAGO COMPENSACION PRE003486        007200              00000000                                                                                                                                  
300020100100000000000021787240000215400400529578750201208         CLAUDIA,NU EZ/OLVERA                                   PAGO COMPENSACION PRE003487        PAGO COMPENSACION PRE003487        PAGO COMPENSACION PRE003487        PAGO COMPENSACION PRE003487        002100              00000000                                                                                                                                  
300020100100000000000021787240000126500046065589920201208         YOLANDA,FLORES/BERNARDO                                PAGO COMPENSACION PRE003488        PAGO COMPENSACION PRE003488        PAGO COMPENSACION PRE003488        PAGO COMPENSACION PRE003488        001200              00000000                                                                                                                                  
30002010010000000000015684584000000180700582117190201208         VERA LORENA DEL ROSARIO,SANDOVAL/ALARCON               PAGO COMPENSACION PRE003489        PAGO COMPENSACION PRE003489        PAGO COMPENSACION PRE003489        PAGO COMPENSACION PRE003489        000000              00000000                                                                                                                                  
300020100100000000000021787240000446911750192892930201208         KAREN DANIELLA,ALTAMIRANO/VARGAS                       PAGO COMPENSACION PRE003490        PAGO COMPENSACION PRE003490        PAGO COMPENSACION PRE003490        PAGO COMPENSACION PRE003490        004400              00000000                                                                                                                                  
300010100100000000000827999901000000000701238037770201208         ISABEL PATRICIA,ESTRADA/GONZALEZ                       PAGO COMPENSACION PRE003491        PAGO COMPENSACION PRE003491        PAGO COMPENSACION PRE003491        PAGO COMPENSACION PRE003491        000000              00000000                                                                                                                                  
300020100100000000000021787240000125800151035240380201208         MARIA MAGDALENA,MARTINEZ/MADERO                        PAGO COMPENSACION PRE003492        PAGO COMPENSACION PRE003492        PAGO COMPENSACION PRE003492        PAGO COMPENSACION PRE003492        001200              00000000                                                                                                                                  
300020100100000000000056153840001271800139839694010201208         SANDRA,PEREZ/GUZMAN                                    PAGO COMPENSACION PRE003493        PAGO COMPENSACION PRE003493        PAGO COMPENSACION PRE003493        PAGO COMPENSACION PRE003493        012700              00000000                                                                                                                                  
300020100100000000000363505740000362154012704893430201208         MARIA GABRIELA GUADALUPE,GARCIA/IRABIEN                PAGO COMPENSACION PRE003494        PAGO COMPENSACION PRE003494        PAGO COMPENSACION PRE003494        PAGO COMPENSACION PRE003494        003600              00000000                                                                                                                                  
300020100100000000000056153840000145975670301189620201208         VIVIAN ESTHER,ZABLAH/MARCOS                            PAGO COMPENSACION PRE003496        PAGO COMPENSACION PRE003496        PAGO COMPENSACION PRE003496        PAGO COMPENSACION PRE003496        001400              00000000                                                                                                                                  
300010100100000000000040507203000052567825929607960201208         CYNTHIA,HERNANDEZ/HERNANDEZ                            PAGO COMPENSACION PRE003497        PAGO COMPENSACION PRE003497        PAGO COMPENSACION PRE003497        PAGO COMPENSACION PRE003497        000000              00000000                                                                                                                                  
300020100100000000000123817040000126800295108392990201208         ADELINA,GONZALEZ/GONZALEZ                              PAGO COMPENSACION PRE003498        PAGO COMPENSACION PRE003498        PAGO COMPENSACION PRE003498        PAGO COMPENSACION PRE003498        001200              00000000                                                                                                                                  
300020100100000000000021787240000121800141641777990201208         IRMA,RAMOS/MIRANDA                                     PAGO COMPENSACION PRE003500        PAGO COMPENSACION PRE003500        PAGO COMPENSACION PRE003500        PAGO COMPENSACION PRE003500        001200              00000000                                                                                                                                  
300010100100000000000082687101000000000903907250770201208         SILVIA MERCEDES,ALGOMEDA/PICHARDO                      PAGO COMPENSACION PRE003501        PAGO COMPENSACION PRE003501        PAGO COMPENSACION PRE003501        PAGO COMPENSACION PRE003501        000000              00000000                                                                                                                                  
300010100100000000000056153803000052567827574830970201208         ROSA MARIA,GONZALEZ/PANZZI                             PAGO COMPENSACION PRE003502        PAGO COMPENSACION PRE003502        PAGO COMPENSACION PRE003502        PAGO COMPENSACION PRE003502        000000              00000000                                                                                                                                  
300020100100000000000329555740000143206061386873000201208         VIRGINIA,GONZALEZ/LOZANO                               PAGO COMPENSACION PRE003504        PAGO COMPENSACION PRE003504        PAGO COMPENSACION PRE003504        PAGO COMPENSACION PRE003504        001400              00000000                                                                                                                                  
300020100100000000000295024140000723200069283310260201208         TERESITA DEL NI O JESUS,GONZALEZ/DE LA CRUZ            PAGO COMPENSACION PRE003505        PAGO COMPENSACION PRE003505        PAGO COMPENSACION PRE003505        PAGO COMPENSACION PRE003505        007200              00000000                                                                                                                                  
300010100100000000000123817001000000000903928691140201208         MONICA CLAUDIA,NADAL/CUMMINGS                          PAGO COMPENSACION PRE003506        PAGO COMPENSACION PRE003506        PAGO COMPENSACION PRE003506        PAGO COMPENSACION PRE003506        000000              00000000                                                                                                                                  
300010100100000000000090877103000052567881855741910201208         ROSA MARIA,CORTEZ/DAVILA                               PAGO COMPENSACION PRE003507        PAGO COMPENSACION PRE003507        PAGO COMPENSACION PRE003507        PAGO COMPENSACION PRE003507        000000              00000000                                                                                                                                  
300010100100000000000123817003000052567828131079950201208         PEDRO ENRIQUE,DIAZ/BARRERA                             PAGO COMPENSACION PRE003508        PAGO COMPENSACION PRE003508        PAGO COMPENSACION PRE003508        PAGO COMPENSACION PRE003508        000000              00000000                                                                                                                                  
300010100100000000000329555701000000000700925295150201208         PALOMA ALEJANDRA,TORRES/CERVANTES                      PAGO COMPENSACION PRE003509        PAGO COMPENSACION PRE003509        PAGO COMPENSACION PRE003509        PAGO COMPENSACION PRE003509        000000              00000000                                                                                                                                  
300020100100000000000021787240000216500641621927130201208         MARIA DE LOS ANGELES,RANGEL/GUZMAN                     PAGO COMPENSACION PRE003510        PAGO COMPENSACION PRE003510        PAGO COMPENSACION PRE003510        PAGO COMPENSACION PRE003510        002100              00000000                                                                                                                                  
300020100100000000000123817040000127000154442670380201208         ELBA REBECA,HERNANDEZ/HERNANDEZ                        PAGO COMPENSACION PRE003511        PAGO COMPENSACION PRE003511        PAGO COMPENSACION PRE003511        PAGO COMPENSACION PRE003511        001200              00000000                                                                                                                                  
300010100100000000000056153803000052041653025658940201208         MARIA EUGENIA,DOMENE/DE ALBA                           PAGO COMPENSACION PRE003512        PAGO COMPENSACION PRE003512        PAGO COMPENSACION PRE003512        PAGO COMPENSACION PRE003512        000000              00000000                                                                                                                                  
300020100100000000000056153840000627300082394682150201208         ANALUCIA,HERNANDEZ/GONZALEZ                            PAGO COMPENSACION PRE003513        PAGO COMPENSACION PRE003513        PAGO COMPENSACION PRE003513        PAGO COMPENSACION PRE003513        000000              00000000                                                                                                                                  
300020100100000000000056153840000442600440006670270201208         MARTHA ELENA,TORRES/MORALES                            PAGO COMPENSACION PRE003514        PAGO COMPENSACION PRE003514        PAGO COMPENSACION PRE003514        PAGO COMPENSACION PRE003514        004400              00000000                                                                                                                                  
300020100100000000000021787240000143206055815673370201208         BIBIANA MARIA,DE/LA GARZA OROZCO                       PAGO COMPENSACION PRE003516        PAGO COMPENSACION PRE003516        PAGO COMPENSACION PRE003516        PAGO COMPENSACION PRE003516        001400              00000000                                                                                                                                  
300020100100000000000090877140000125800157884731510201208         MARIA OFELIA,LOYA/GARZA                                PAGO COMPENSACION PRE003517        PAGO COMPENSACION PRE003517        PAGO COMPENSACION PRE003517        PAGO COMPENSACION PRE003517        001200              00000000                                                                                                                                  
300010100100000000000224662501000000000903910056120201208         ELIZABETH,RINCON/YESCAS                                PAGO COMPENSACION PRE003518        PAGO COMPENSACION PRE003518        PAGO COMPENSACION PRE003518        PAGO COMPENSACION PRE003518        000000              00000000                                                                                                                                  
300020100100000000000259078540000146725652402351700201208         ROSA MARIA,PENSADO/FERNANDEZ                           PAGO COMPENSACION PRE003520        PAGO COMPENSACION PRE003520        PAGO COMPENSACION PRE003520        PAGO COMPENSACION PRE003520        001400              00000000                                                                                                                                  
300020100100000000000056153840000305409000007167880201208         KARLA GIOVANNA,NIETO/GARCINI                           PAGO COMPENSACION PRE003521        PAGO COMPENSACION PRE003521        PAGO COMPENSACION PRE003521        PAGO COMPENSACION PRE003521        003000              00000000                                                                                                                                  
300010100100000000000090877101000000000903913137320201208         LILIANA,BARBA/JIMENEZ                                  PAGO COMPENSACION PRE003522        PAGO COMPENSACION PRE003522        PAGO COMPENSACION PRE003522        PAGO COMPENSACION PRE003522        000000              00000000                                                                                                                                  
300020100100000000000123817040000143202000854307630201208         WENDY,SANABRIA/PALAZUELOS                              PAGO COMPENSACION PRE003523        PAGO COMPENSACION PRE003523        PAGO COMPENSACION PRE003523        PAGO COMPENSACION PRE003523        001400              00000000                                                                                                                                  
300010100100000000000115166603000052567827296460940201208         DANIEL,GONZALEZ/DELGADILLO                             PAGO COMPENSACION PRE003524        PAGO COMPENSACION PRE003524        PAGO COMPENSACION PRE003524        PAGO COMPENSACION PRE003524        000000              00000000                                                                                                                                  
300020100100000000000021787240000127000157202253250201208         ROSA LISSETE,ESPINOSA/FLORES                           PAGO COMPENSACION PRE003525        PAGO COMPENSACION PRE003525        PAGO COMPENSACION PRE003525        PAGO COMPENSACION PRE003525        001200              00000000                                                                                                                                  
300020100100000000000090877140000143206058224752980201208         VERONICA,GARCIA/CID                                    PAGO COMPENSACION PRE003526        PAGO COMPENSACION PRE003526        PAGO COMPENSACION PRE003526        PAGO COMPENSACION PRE003526        001400              00000000                                                                                                                                  
300020100100000000000295024140000143206054845245320201208         MARIA DE LOURDES,LUENGAS/MU OZ                         PAGO COMPENSACION PRE003527        PAGO COMPENSACION PRE003527        PAGO COMPENSACION PRE003527        PAGO COMPENSACION PRE003527        001400              00000000                                                                                                                                  
300020100100000000000156845840000126500284728282690201208         MOISES,CORTES/ESTEVES                                  PAGO COMPENSACION PRE003528        PAGO COMPENSACION PRE003528        PAGO COMPENSACION PRE003528        PAGO COMPENSACION PRE003528        001200              00000000                                                                                                                                  
300020100100000000000021787240000366805002997687330201208         ALMA MARICELA,ROLDAN/MORALES                           PAGO COMPENSACION PRE003529        PAGO COMPENSACION PRE003529        PAGO COMPENSACION PRE003529        PAGO COMPENSACION PRE003529        003600              00000000                                                                                                                                  
300020100100000000000156845840000144416057002779630201208         CECILIA,GONZALEZ/MALDA                                 PAGO COMPENSACION PRE003530        PAGO COMPENSACION PRE003530        PAGO COMPENSACION PRE003530        PAGO COMPENSACION PRE003530        001400              00000000                                                                                                                                  
300020100100000000000190661040000721800083468365740201208         ERIKA,MENDOZA/MEZA                                     PAGO COMPENSACION PRE003531        PAGO COMPENSACION PRE003531        PAGO COMPENSACION PRE003531        PAGO COMPENSACION PRE003531        007200              00000000                                                                                                                                  
300020100100000000000649083140000210100646449106130201208         SILVIA,PADILLA/PEREZ                                   PAGO COMPENSACION PRE003532        PAGO COMPENSACION PRE003532        PAGO COMPENSACION PRE003532        PAGO COMPENSACION PRE003532        002100              00000000                                                                                                                                  
300010100100000000000056153803000052567829961556960201208         ALICIA MARIA,GOMEZ/PEREZ                               PAGO COMPENSACION PRE003533        PAGO COMPENSACION PRE003533        PAGO COMPENSACION PRE003533        PAGO COMPENSACION PRE003533        000000              00000000                                                                                                                                  
300020100100000000000090877140000142255664423118660201208         LAURA,CASTRO/CARDENAS                                  PAGO COMPENSACION PRE003534        PAGO COMPENSACION PRE003534        PAGO COMPENSACION PRE003534        PAGO COMPENSACION PRE003534        001400              00000000                                                                                                                                  
300020100100000000000056153840000727300086620626210201208         LUISA ALEJANDRA,GUERRERO/LEYVA                         PAGO COMPENSACION PRE003535        PAGO COMPENSACION PRE003535        PAGO COMPENSACION PRE003535        PAGO COMPENSACION PRE003535        007200              00000000                                                                                                                                  
300010100100000000000190661003000052041635706644990201208         LORENA GUADALUPE,FARAH/VALENCIA                        PAGO COMPENSACION PRE003536        PAGO COMPENSACION PRE003536        PAGO COMPENSACION PRE003536        PAGO COMPENSACION PRE003536        000000              00000000                                                                                                                                  
300020100100000000000156845840000216500647014905910201208         MARIA ALICIA,VILLALVAZO/BAZ                            PAGO COMPENSACION PRE003538        PAGO COMPENSACION PRE003538        PAGO COMPENSACION PRE003538        PAGO COMPENSACION PRE003538        002100              00000000                                                                                                                                  
300020100100000000000021787240000211800649774124330201208         MARIANA,RODRIGUEZ/SANCHEZ                              PAGO COMPENSACION PRE003539        PAGO COMPENSACION PRE003539        PAGO COMPENSACION PRE003539        PAGO COMPENSACION PRE003539        002100              00000000                                                                                                                                  
300020100100000000000213955340000140956057444053120201208         VIRGINIA,LOPEZ/MARTINEZ                                PAGO COMPENSACION PRE003540        PAGO COMPENSACION PRE003540        PAGO COMPENSACION PRE003540        PAGO COMPENSACION PRE003540        001400              00000000                                                                                                                                  
300020100100000000000090877140000121800295125683140201208         LETICIA,WENDLANDT/BAENA                                PAGO COMPENSACION PRE003541        PAGO COMPENSACION PRE003541        PAGO COMPENSACION PRE003541        PAGO COMPENSACION PRE003541        001200              00000000                                                                                                                                  
300020100100000000000021787240000727000083345616260201208         EVEIDY PAULINA,DE/LA GARZA CARDENAS                    PAGO COMPENSACION PRE003542        PAGO COMPENSACION PRE003542        PAGO COMPENSACION PRE003542        PAGO COMPENSACION PRE003542        007200              00000000                                                                                                                                  
300010100100000000000123817001000000000904082469020201208         MARIANA,URIBE/MORFIN                                   PAGO COMPENSACION PRE003543        PAGO COMPENSACION PRE003543        PAGO COMPENSACION PRE003543        PAGO COMPENSACION PRE003543        000000              00000000                                                                                                                                  
300020100100000000000123817040000121800290619241660201208         JAZZMIN,CARRION/MORAS                                  PAGO COMPENSACION PRE003544        PAGO COMPENSACION PRE003544        PAGO COMPENSACION PRE003544        PAGO COMPENSACION PRE003544        001200              00000000                                                                                                                                  
300020100100000000000139545040000141806061763670840201208         ALEXANDRA CRISTINA,RODRIGUES/PINELA                    PAGO COMPENSACION PRE003545        PAGO COMPENSACION PRE003545        PAGO COMPENSACION PRE003545        PAGO COMPENSACION PRE003545        001400              00000000                                                                                                                                  
300020100100000000000021787240000121800017357531440201208         ALEJANDRA,RUIZ/DIAZ                                    PAGO COMPENSACION PRE003546        PAGO COMPENSACION PRE003546        PAGO COMPENSACION PRE003546        PAGO COMPENSACION PRE003546        001200              00000000                                                                                                                                  
300020100100000000000067516640000446800350458230620201208         SUSANA PAULINA,LARA/AYALA                              PAGO COMPENSACION PRE003547        PAGO COMPENSACION PRE003547        PAGO COMPENSACION PRE003547        PAGO COMPENSACION PRE003547        004400              00000000                                                                                                                                  
300020100100000000000090877140000124700276001318860201208         FLOR,GARCIA/GONZALEZ                                   PAGO COMPENSACION PRE003548        PAGO COMPENSACION PRE003548        PAGO COMPENSACION PRE003548        PAGO COMPENSACION PRE003548        001200              00000000                                                                                                                                  
300020100100000000000107499240000721800001506614250201208         SARAH,ROBLEDO/MENA                                     PAGO COMPENSACION PRE003549        PAGO COMPENSACION PRE003549        PAGO COMPENSACION PRE003549        PAGO COMPENSACION PRE003549        007200              00000000                                                                                                                                  
300020100100000000000123817040000000000000090999770201208         MA  SUSANA,AVILA/JIMENEZ                               PAGO COMPENSACION PRE003550        PAGO COMPENSACION PRE003550        PAGO COMPENSACION PRE003550        PAGO COMPENSACION PRE003550        000000              00000000                                                                                                                                  
300010100100000000000056153803000052567828032047940201208         MARIA ELENA,GONZALEZ/AYALA                             PAGO COMPENSACION PRE003551        PAGO COMPENSACION PRE003551        PAGO COMPENSACION PRE003551        PAGO COMPENSACION PRE003551        000000              00000000                                                                                                                                  
300020100100000000000090877140000726500066879706760201208         VIOLETA,ESCOBAR/MARQUEZ                                PAGO COMPENSACION PRE003552        PAGO COMPENSACION PRE003552        PAGO COMPENSACION PRE003552        PAGO COMPENSACION PRE003552        007200              00000000                                                                                                                                  
300010100100000000000329555703000052041642101496930201208         LORENA GABRIELA,ROMERO/RESENDIZ                        PAGO COMPENSACION PRE003553        PAGO COMPENSACION PRE003553        PAGO COMPENSACION PRE003553        PAGO COMPENSACION PRE003553        000000              00000000                                                                                                                                  
300020100100000000000575643140000123810298032694190201208         ANA LAURA,VALLE/MACIAS                                 PAGO COMPENSACION PRE003554        PAGO COMPENSACION PRE003554        PAGO COMPENSACION PRE003554        PAGO COMPENSACION PRE003554        001200              00000000                                                                                                                                  
300020100100000000000259078540000125350017459188700201208         VERONICA,SAHAGUN/JIMENEZ                               PAGO COMPENSACION PRE003555        PAGO COMPENSACION PRE003555        PAGO COMPENSACION PRE003555        PAGO COMPENSACION PRE003555        001200              00000000                                                                                                                                  
300020100100000000000520305740001271800132803136660201208         NANCY ABIGAIL,MARTINEZ/ACOSTA                          PAGO COMPENSACION PRE003556        PAGO COMPENSACION PRE003556        PAGO COMPENSACION PRE003556        PAGO COMPENSACION PRE003556        012700              00000000                                                                                                                                  
300020100100000000000329555740000219100651081896100201208         MARIANA,LOPERENA/DIAZ                                  PAGO COMPENSACION PRE003557        PAGO COMPENSACION PRE003557        PAGO COMPENSACION PRE003557        PAGO COMPENSACION PRE003557        002100              00000000                                                                                                                                  
300020100100000000000282022540000141806051191645880201208         LORENA,RUILOBA/SOLANA                                  PAGO COMPENSACION PRE003558        PAGO COMPENSACION PRE003558        PAGO COMPENSACION PRE003558        PAGO COMPENSACION PRE003558        001400              00000000                                                                                                                                  
300010100100000000000506305701000000000013641842860201208         JENNINA LUISA,ABARCA/GUERRERO                          PAGO COMPENSACION PRE003559        PAGO COMPENSACION PRE003559        PAGO COMPENSACION PRE003559        PAGO COMPENSACION PRE003559        000000              00000000                                                                                                                                  
300010100100000000000123817003000052567826736103930201208         AMELIA CATALINA,VARGAS/GUIZAR                          PAGO COMPENSACION PRE003560        PAGO COMPENSACION PRE003560        PAGO COMPENSACION PRE003560        PAGO COMPENSACION PRE003560        000000              00000000                                                                                                                                  
300020100100000000000021787240000127900261604796330201208         GUADALUPE DEL CARMEN,ORTIZ/MALDONADO                   PAGO COMPENSACION PRE003561        PAGO COMPENSACION PRE003561        PAGO COMPENSACION PRE003561        PAGO COMPENSACION PRE003561        001200              00000000                                                                                                                                  
300010100100000000000131681003000052567881913610960201208         KAREN,AYMES/GARCIA                                     PAGO COMPENSACION PRE003562        PAGO COMPENSACION PRE003562        PAGO COMPENSACION PRE003562        PAGO COMPENSACION PRE003562        000000              00000000                                                                                                                                  
300020100100000000000156845840000723200001621483850201208         MARIA ALEJANDRA,ZA UDO/FERNANDEZ                       PAGO COMPENSACION PRE003563        PAGO COMPENSACION PRE003563        PAGO COMPENSACION PRE003563        PAGO COMPENSACION PRE003563        007200              00000000                                                                                                                                  
300010100100000000000596043101000000000903573903960201208         GUADALUPE,RODRIGUEZ/RAMOS                              PAGO COMPENSACION PRE003564        PAGO COMPENSACION PRE003564        PAGO COMPENSACION PRE003564        PAGO COMPENSACION PRE003564        000000              00000000                                                                                                                                  
